:100000000C943E000C945B000C945B000C945B0021
:100010000C945B000C945B000C945B000C945B00F4
:100020000C945B000C945B000C945B000C945B00E4
:100030000C945B000C94EE020C945B000C945B003F
:100040000C947D020C945B000C945B000C945B00A0
:100050000C9431020C945B000C945B000C945B00DC
:100060000C945B000C945B000C945B000C945B00A4
:100070000C9455020C945B000C945B0011241FBE81
:10008000CFEFD8E0DEBFCDBF11E0A0E0B1E0EAEBFA
:10009000F5E102C005900D92A63BB107D9F722E029
:1000A000A6EBB1E001C01D92A03CB207E1F70E94AF
:1000B0005F070C94DB0A0C9400002091BA02309187
:1000C000BB0228173907A1F4E091D8018091D9012A
:1000D0008E1771F091E09E0F9093D801F0E0EC53F1
:1000E000FE4F8689983010F01092D80190E0089564
:1000F0008FEF9FEF08952091BC023091BD0226172B
:10010000370751F49091C00095FFFCCF8093C60053
:10011000082E000C990B08958FEF9FEF0895605003
:10012000714051F49091C80095FFFCCF8093CE00B0
:10013000082E000C990B08958FEF9FEF0895E4ECC3
:10014000F1E098E9DF01892F1D928A95E9F721E016
:100150002083A7EBBBE01197F1F700C000000B9ADA
:1001600084B18C6084B92098219824982C9A87B106
:10017000806C87B987B18C6387B98AB180678AB987
:1001800083EC8093B0002093B1008FEF8093B30095
:10019000579A85E987BD82E084BD85BD80936E0056
:1001A00085BB20EA20937C0027E820937A003CE07E
:1001B0003093C4001092C5008093C00026E02093C5
:1001C000C2009093C1003093CC001092CD00809378
:1001D000C8002093CA009093C900AAEBB2E08EE059
:1001E00091E013969C938E93129715969C938E9301
:1001F00014978CE191E08D939C9380E091E096833D
:10020000858308950895FC0190819F3F11F09F5FC1
:1002100090830895FC01208131812F3FFFEF3F073C
:1002200029F02F5F3F4FFC01318320830895809197
:10023000C80187FF01C0789408958091C8010FB666
:1002400007FE02C0806801C08F778093C801F894D0
:1002500008958AE090E00C9418088091D90190915B
:10026000D801891708F4885F891B0895CF93DF931D
:10027000C82F0E941D010E942D01C81760F4E09153
:10028000D801EC0FE83008F0E850F0E0EC53FE4FF6
:10029000C689D0E002C0CFEFDFEF0E941701CE0188
:1002A000DF91CF9108950E941D018091C00087FFCA
:1002B00005C08091C6008093DA01F7CF1092D80173
:1002C0001092D9011092CD010C941701CF93DF93B6
:1002D000C82F0E941D01D091CB018D2F8C2B8093B4
:1002E000CB010E941701CD2381E009F480E0DF916A
:1002F000CF910895CF93DF93C82F0E941D01D09115
:10030000CB018C2F80958D238093CB010E94170108
:10031000CD2381E009F480E0DF91CF9108959091A1
:10032000CB01982381E009F480E00895662381F0F1
:10033000813041F028F0823039F0833039F008956F
:10034000429A0895439A0895449A0895459A0895C3
:10035000813041F028F0823039F0833039F008954F
:1003600042980895439808954498089545980895AB
:10037000682F80E00C949601682F81E00C94960120
:10038000682F82E00C949601682F83E00C9496010C
:1003900083B182958170089583B1869581700895A7
:1003A00083B18170089580958093B3000895882368
:1003B00011F0469A089546980895662349F08823D7
:1003C00019F0813019F008955D9A0895479A0895BB
:1003D000882319F0813019F008955D9808954798A1
:1003E0000895662349F0882319F0813019F00895A3
:1003F0005E9A0895139A0895882319F0813019F0B0
:1004000008955E98089513980895662349F0882307
:1004100019F0813019F008952B9A08952A9A0895B9
:10042000882319F0813019F008952B9808952A989F
:100430000895682F80E00C940502682F81E00C94E9
:100440000502882311F05C9A08955C98089598B18C
:1004500080E4892788B908959BB180E189278BB909
:1004600008951F920F920FB60F9211248F939F93AE
:100470008091C600823581F49091B901903461F485
:1004800098E088E10FB6F894A895809360000FBEBD
:1004900090936000A895FFCF8093B9019F918F91B1
:1004A0000F900FBE0F901F9018951F920F920FB6CE
:1004B0000F9211242F933F934F935F936F937F93EA
:1004C0008F939F93AF93BF93EF93FF93EEECF0E086
:1004D000808180830E941A06FF91EF91BF91AF91B6
:1004E0009F918F917F916F915F914F913F912F914C
:1004F0000F900FBE0F901F9018951F920F920FB67E
:100500000F9211242F933F934F935F936F937F9399
:100510008F939F93AF93BF93EF93FF938091B80115
:100520008F5F853018F48093B80147C01092B801EE
:100530008091B7018F5F8093B7018091B6018823C6
:1005400029F086EC91E00E940A0137C081E0809397
:10055000B60178948091B70180FF03C00E948203A6
:100560002AC081FF0CC00E94B00380917900809363
:10057000CC0180917A00806480937A001CC082FF55
:1005800003C00E94FE0317C083FF03C00E94FF0345
:1005900012C084FF03C00E9400040DC085FF03C089
:1005A0000E94010408C086FF03C00E94020403C029
:1005B00087FD0E9408041092B601FF91EF91BF9150
:1005C000AF919F918F917F916F915F914F913F91EB
:1005D0002F910F900FBE0F901F9018951F920F92A2
:1005E0000FB60F921124109281000F900FBE0F9042
:1005F0001F901895ECE5F2E08FE0DF011D928A95DF
:10060000E9F781E080838FEF9FEF928781870895DC
:100610000E94C8018823E1F081E00E94210261E08C
:1006200082E00E94960161E083E00E9496018FEFD4
:100630008093B30061E080E00E94F10161E081E01D
:100640000E94F10160E080E00E94DD0160E018C0DE
:1006500080E00E94210260E082E00E94960160E05A
:1006600083E00E94960160E080E00E94F10160E07A
:1006700081E00E94F10161E080E00E94DD0161E023
:1006800081E00C94DD018091CC0129EE829FC001B4
:100690001124895E9E4F90936302809362028115BC
:1006A00020E2920718F4109264020895692F80E402
:1006B0009FE170E00E949107609364020895809129
:1006C00060029091610208959093610280936002AC
:1006D0009C01A9E2B1E00E94A507DC01CB01905882
:1006E000AF4FBF4FCD01AF3FB10519F010F08FEF05
:1006F00090E00E94D30180E0089580916202909181
:10070000630208958091BD019091BE01853B9105E2
:1007100018F488EE93E001C001979093BE01809396
:10072000BD018091630290E0803210F480E003C04C
:10073000813A18F081E00C94210249E1489F900130
:10074000499F300D1124C9019595879595958795F9
:100750002091BD013091BE012817390738F7EACF43
:100760008091BB019091BC01883823E1920730F45D
:1007700001969093BC018093BB0106C08FEF9FEF61
:1007800090936602809365020E94CC01882339F021
:1007900081E00E94190281E08093BA01089580E00F
:1007A0000E9419028091BA01813039F51092BA0184
:1007B0008091670290916802A0916902B0916A02EB
:1007C0008F3F2FEF9207A207B20759F00196A11DA4
:1007D000B11D8093670290936802A0936902B09361
:1007E0006A028091BB019091BC0190936602809354
:1007F00065021092BC011092BB01089508950895FE
:10080000089508950E94C80181110C94270208954B
:100810000E94C801811102C00E94270281E00E944B
:100820007A01882311F081E001C080E00E941D025E
:1008300082E00E947A01882311F061E001C060E04B
:1008400080E00C94DD01EBE6F2E08BE4DF011D9229
:100850008A95E9F781E080838EE18183089590EDA8
:10086000980F9A3010F4892F08959FEB980F9630C7
:1008700010F4875308958FEF0895CF92DF92EF928F
:10088000FF920F931F93CF93DF936A017C01D62FC2
:100890008B01802F8D1B1C141D04ECF4F70180814B
:1008A0000E942F04C82FF70181810E942F04C7FDE9
:1008B00011C0F2E0EF0EF11C87FD0CC090E1C902FF
:1008C00090011124282BF80121938F01F2E0CF1A17
:1008D000D108DFCF8FEFDF91CF911F910F91FF9064
:1008E000EF90DF90CF900895CF92DF92EF92FF923A
:1008F0001F93CF93DF93182F6091C9017091CA01A4
:100900008AE390E00E94C607D12F23E7E22E22E07F
:10091000F22EC0E038E6C32E31E0D32E2091CA017A
:100920009091C901DD23A1F0F70181917F01C80FEA
:100930001F928F93DF92CF922F939F930E94B407C1
:10094000D1500F900F900F900F900F900F90E6CF17
:100950001F928C2F81958F934DE651E05F934F93BB
:100960002F939F930E94B4070F900F900F900F90BA
:100970000F900F9080916C028832C0F184E791E073
:100980009F938F930E94020883E7E82E82E0F82E5F
:100990000F900F9098E6C92E91E0D92ED11779F0DB
:1009A000F70181917F011F928F93DF92CF920E9476
:1009B0000208DF5F0F900F900F900F90EFCF1F9204
:1009C000CF9388E691E09F938F930E9402080F9047
:1009D0000F900F900F908FE791E0DF91CF911F91D3
:1009E000FF90EF90DF90CF900C941F08DF91CF9194
:1009F0001F91FF90EF90DF90CF900895EBE6F2E02B
:100A00009185906891879285892B828783E00C94E9
:100A10007404AF92BF92CF92DF92EF92FF920F9346
:100A20001F93CF93DF9300D0CDB7DEB781E00E9454
:100A300066014091B30250E04150510963E772E012
:100A400084E792E00E943D0490916C02082F082EEA
:100A5000000C110B983250F11F938F9385E891E0B1
:100A60009F938F930E9402080F900F900F900F900A
:100A7000F12C48E6C42E41E0D42E8F2D90E0801753
:100A8000910784F4FC01E559FD4F80851F928F93F7
:100A9000DF92CF920E940208F3940F900F900F9074
:100AA0000F90EBCF8FE791E00E941F0890E080E06D
:100AB00001501109292F30E0201731073CF4F901CA
:100AC000E559FD4F2085820F9F5FF4CFF82EF194FA
:100AD00005591D4FF8018085F81259C080917302A5
:100AE000813009F06EC0809175029091760298274E
:100AF0008927982760917702709178027627672777
:100B0000762720917402233019F0263091F13BC0F2
:100B10009B01215031092E333105D8F4262F220FA5
:100B200020937502162F2BE6E22E22E0F22E33E000
:100B3000C32ED12C5C01FFEFAF1ABF0ABE016F5F5D
:100B40007F4F0E947B06115022E0E20EF11C8823A9
:100B500011F083E019C089819A81F7019187F2E051
:100B6000CF0ED11CF7018287C5011111E3CF8C2D67
:100B700007C00E941607882311F082E005C086E0B6
:100B80000E9474041EC081E00E94FE041AC081E726
:100B900092E00E94030180916C02843190F01F92D8
:100BA000FF92F80180851F928F9386E991E09F93D1
:100BB0008F930E9402080F900F900F900F900F904C
:100BC0000F900F900F90DF91CF911F910F91FF9099
:100BD000EF90DF90CF90BF90AF900895CF93EDE668
:100BE000F2E08191882329F082E00E946601C1E051
:100BF00005C082E0E337F807A1F7C0E00E94C80112
:100C0000882349F0CC2339F086E0EDE6F2E0DF01FD
:100C10001D928A95E9F784E00E948F01882341F0B4
:100C20000E9409051092B30284E0CF910C947A01DE
:100C3000CF910895CF93C82F84E00E948F0188231D
:100C400019F082E792E03DC08091B30281110DC09E
:100C5000CA3399F08091B4029091B502892B59F171
:100C60008DE692E00E940A0126C0CA3349F48FE65D
:100C700092E00E9403011092B3021092BF011BC0C8
:100C8000CA3099F49091BF01992331F080FF04C0DC
:100C900084E00E94660106C08FE692E00E94030194
:100CA0001092B3021092BF0117C0CD3021F481E041
:100CB0008093BF0111C0E091B302E03428F080E7D7
:100CC00092E0CF910C94030181E08E0F8093B302E8
:100CD000F0E0E559FD4FC087CF910895E6EBF2E0D3
:100CE00084E0DF011D928A95E9F781E08083089511
:100CF000089581E00895CF93DF93DB01811524E00F
:100D0000920798F1292F33272C7F3327283031057C
:100D1000E1F060F42430310509F06AC0945042E0FB
:100D200050E02FE030E0ECE5F2E066C02C30310519
:100D3000A1F02031310509F05BC0905146E050E050
:100D40002BE430E0EBE6F2E057C0985042E050E090
:100D500028E930E0E4ECF1E04FC09C5042E050E084
:100D600024E030E0E6EBF2E047C082309105C1F0CC
:100D7000EB018330910538F4009779F00197D1F5B4
:100D80000E947D0333C08330910589F0049791F56B
:100D90008091C0019091C10129C00E945F0326C0CB
:100DA00080916502909166028D939C9321C00E9470
:100DB0001D018091670290916802A0916902B09133
:100DC0006A028093C0019093C101A093C201B093C5
:100DD000C3010E9417018091C0019091C101A091AF
:100DE000C201B091C301B983A88302C099838883EB
:100DF00080E019C081E017C0009719F42D933C934F
:100E0000F7CF8130910519F44D935C93F1CF8217A0
:100E1000930780F782509048880F991FE80FF91FB9
:100E200080819181C1CFDF91CF910895811524E018
:100E3000920748F1292F33272C7F3327283031059B
:100E4000B1F048F42430310531F5945022E030E01F
:100E5000ECE5F2E01EC02C30310579F0203131058F
:100E6000D1F4905126E030E0EBE6F2E012C0985069
:100E700022E030E0E4ECF1E00CC09C5022E030E0F5
:100E8000E6EBF2E006C0892B19F4CB010C94640365
:100E90000895029711F081E008956183872F90E013
:100EA000892BC9F340E0842F90E08217930798F7CD
:100EB000DF01A80FB91F12961C924F5FF4CF0E945A
:100EC0009F000E9423040E946E060E94FA028AE29A
:100ED00091E09F938F938DE291E09F938F9386E3B0
:100EE00091E09F938F9382E491E09F938F938CE5A1
:100EF00091E09F938F930E9402080E9429017894A9
:100F00008DB79EB70A960FB6F8949EBF0FBE8DBFE1
:100F10000E9402010E94EE050E9478060E9443038F
:100F2000F7CFAA1BBB1B51E107C0AA1FBB1FA61707
:100F3000B70710F0A61BB70B881F991F5A95A9F782
:100F400080959095BC01CD010895A29FB001B39FFB
:100F5000C001A39F700D811D1124911DB29F700DC2
:100F6000811D1124911D0895A0E0B0E0EAEBF7E0A7
:100F70000C94B40AAE01475F5F4F6F8178858D8115
:100F80009E810E944F08E2E00C94D00A0F931F93B9
:100F9000CF93DF93FB01238121FD03C08FEF9FEFF0
:100FA0002CC022FF16C0468157812481358142170B
:100FB000530744F4A081B1819D012F5F3F4F3183DE
:100FC00020838C93268137812F5F3F4F3783268381
:100FD00014C08B01EC01FB010084F185E02D099523
:100FE000892BE1F6D80116968D919C911797019661
:100FF00017969C938E931697CE01DF91CF911F91F8
:101000000F910895A0E0B0E0E8E0F8E00C94B40A95
:10101000AE014B5F5F4FFA0161917191AF01809119
:10102000BC029091BD020E944F08E2E00C94D00AED
:101030006091BC027091BD020E94C60708950F9393
:101040001F93CF93DF93E091BC02F091BD02238107
:1010500021FF1BC08C01D0E0C0E0F80181918F011D
:101060006091BC027091BD02DB011896ED91FC917C
:101070001997882331F00995892B79F3DFEFCFEFAA
:10108000ECCF8AE00995892B19F08FEF9FEF02C012
:101090008D2F9C2FDF91CF911F910F910895ABE081
:1010A000B0E0E5E5F8E00C94A40A6C017B018A014C
:1010B000FC0117821682838181FFCCC1CE0101968B
:1010C0003C01F6019381F70193FD859193FF819196
:1010D0007F01882309F4BAC1853239F493FD8591E3
:1010E00093FF81917F01853229F4B60190E00E943F
:1010F000C607E7CF912C212C312CFFE1F315D8F056
:101100008B3279F038F4803279F08332A1F4232DD8
:1011100020611DC08D3261F0803369F4232D216080
:1011200016C0832D8260382EE32DE4603E2E2AC047
:10113000F32DF8601DC037FC2DC020ED280F2A309C
:1011400040F08E32B9F436FC81C1232D2064322E5A
:1011500019C036FE06C08AE0989E200D1124922EFA
:1011600011C0EAE02E9E200D1124222EF32DF062F4
:101170003F2E08C08C3621F4832D8068382E02C0A3
:10118000883641F4F70193FD859193FF81917F01AA
:101190008111B3CF982F9F7D9554933028F40C5F25
:1011A0001F4F9FE399830DC0833631F0833771F071
:1011B000833509F059C021C0F801808189830E5F11
:1011C0001F4F88248394912C530113C02801F2E00F
:1011D0004F0E511CF801A080B18036FE03C0692D6E
:1011E00070E002C06FEF7FEFC5010E943B0A4C0127
:1011F0008201F32DFF773F2E16C0280122E0420E18
:10120000511CF801A080B18036FE03C0692D70E04A
:1012100002C06FEF7FEFC5010E94300A4C01F32D31
:10122000F0683F2E820133FC1BC0822D90E08816AF
:101230009906B0F4B60180E290E00E94C6072A94B5
:10124000F4CFF50137FC859137FE81915F01B6013E
:1012500090E00E94C60721102A9421E0821A91088A
:101260008114910471F7E8C0843611F0893641F594
:10127000F80137FE07C060817181828193810C5F24
:101280001F4F08C060817181072E000C880B990BDD
:101290000E5F1F4FF32DFF763F2E97FF09C09095ED
:1012A0008095709561957F4F8F4F9F4FF0683F2ECF
:1012B0002AE030E0A3010E94460A882E861845C025
:1012C000853731F4232D2F7EB22E2AE030E025C061
:1012D000932D997FB92E8F36C1F018F4883579F0A7
:1012E000B5C0803719F0883721F0B0C0E92FE06130
:1012F000BE2EB4FE0DC0FB2DF460BF2E09C034FE1F
:101300000AC0292F2660B22E06C028E030E005C0B2
:1013100020E130E002C020E132E0F801B7FE07C072
:1013200060817181828193810C5F1F4F06C0608153
:10133000718180E090E00E5F1F4FA3010E94460A7A
:10134000882E8618FB2DFF773F2E36FE0DC0232DED
:101350002E7FA22E891458F434FE0BC032FC09C033
:10136000832D8E7EA82E05C0B82CA32C03C0B82CCC
:1013700001C0B92CA4FE0FC0FE01E80DF11D808153
:10138000803321F49A2D997EA92E09C0A2FE06C0B1
:10139000B394B39404C08A2D867809F0B394A3FC67
:1013A00011C0A0FE06C0B21488F4280C922C9B1821
:1013B0000EC0B21460F4B60180E290E00E94C6074D
:1013C000B394F7CFB21418F42B1802C0982C212C28
:1013D000A4FE10C0B60180E390E00E94C607A2FE02
:1013E00017C0A1FC03C088E790E002C088E590E048
:1013F000B6010CC08A2D867859F0A1FE02C08BE29E
:1014000001C080E2A7FC8DE2B60190E00E94C60711
:10141000891438F4B60180E390E00E94C6079A94DC
:10142000F7CF8A94F301E80DF11D8081B60190E0B9
:101430000E94C6078110F5CF222009F442CEB601E2
:1014400080E290E00E94C6072A94F6CFF6018681DA
:10145000978102C08FEF9FEF2B96E2E10C94C00AB8
:10146000FC010590615070400110D8F7809590956F
:101470008E0F9F1F0895FC01615070400190011074
:10148000D8F7809590958E0F9F1F0895FA01AA278F
:10149000283051F1203181F1E8946F936E7F6E5FB7
:1014A0007F4F8F4F9F4FAF4FB1E03ED0B4E03CD065
:1014B000670F781F891F9A1FA11D680F791F8A1F48
:1014C000911DA11D6A0F711D811D911DA11D20D0AF
:1014D00009F468943F912AE0269F11243019305D69
:1014E0003193DEF6CF010895462F4770405D41935A
:1014F000B3E00FD0C9F7F6CF462F4F70405D4A33A7
:1015000018F0495D31FD4052419302D0A9F7EACF6E
:10151000B4E0A6959795879577956795BA95C9F79D
:1015200000976105710508959B01AC010A2E069490
:101530005795479537952795BA95C9F7620F731F49
:10154000841F951FA01D08952F923F924F925F9286
:101550006F927F928F929F92AF92BF92CF92DF92C3
:10156000EF92FF920F931F93CF93DF93CDB7DEB728
:10157000CA1BDB0B0FB6F894DEBF0FBECDBF0994BC
:101580002A88398848885F846E847D848C849B8413
:10159000AA84B984C884DF80EE80FD800C811B8121
:1015A000AA81B981CE0FD11D0FB6F894DEBF0FBE50
:0A15B000CDBFED010895F894FFCFC0
:1015BA0000000002000000008F0000000000000090
:1015CA000002000000007B00000000000000000193
:1015DA000000000000005D0000000D0A0031363AEC
:1015EA0032303A3035004A616E203137203230319C
:1015FA0039000D0A686F742D77617465722D636FF7
:10160A006E74726F6C6C65722055310025732025DB
:10161A007320257320257300253032580025303277
:10162A00580D0A00526573706F6E7365203A005C3C
:10163A00725C6E0D005265717565737420282530D1
:10164A00327829203A004C5243202530325820451E
:10165A0072726F7220286578706563742025303243
:06166A0058290D0A0000E2
:00000001FF
